:020000040800F2
:1000000060060020CD000008353100086B24000890
:1000100000000000000000000000000000000000E0
:10002000000000000000000000000000493500084A
:100030000000000000000000453300088135000882
:10004000DF00000800000000DF000008DF000008FB
:10005000DF000008DF000008DF000008DF00000804
:1000600000000000DF000008DF000008DF000008DB
:10007000DF000008DF000008DF00000800000000CB
:10008000DF000008DF00000800000000DF000008BB
:10009000DF000008DF000008DF000008DF000008C4
:1000A0006D24000849330008DF000008DF00000865
:1000B000DF0000080448854600F054FD0048004772
:1000C000015F0008C046C046600600200448804723
:1000D00004480047FEE7FEE7FEE7FEE7FEE7FEE72F
:1000E000F7350008B500000830B50B460146002082
:1000F0002022012409E00D46D5409D4205D31D462E
:100100009540491B2546954040191546521E002D25
:10011000F1DC30BD70B500242546002801DA012449
:100120004042002901DA01254942FFF7DDFFAC42D8
:1001300000D04042002C00D0494270BDF0B51FB441
:100140000646002082B005464024019100901BE045
:10015000019922460F46304600F083F8049A059B29
:10016000801A994110D310461946224600F016FC19
:10017000361A8F410197224601200021009F00F08E
:100180000DFC38184D4100902046641E0028DFDC2D
:10019000019B00982946324607B0F0BDF8B500240F
:1001A0002546002904DA0E46012400214042B141CF
:1001B000002B04DA1E46002352420125B341FFF70B
:1001C000BDFF8C4617461E46AC4203D00025404278
:1001D0008D41AC46002C02D0002657429E4161461C
:1001E0003A46334601B0F0BDF0B51FB486B00020EA
:1001F0000090019002900698069980B204900798AA
:10020000090C02040014114307900027089D099867
:1002100006913E463C4603900398A9B20204000CA6
:10022000039004982D0C154348430021224600F00A
:10023000B5FBC719714110340E46402CECDB384633
:10024000029A00F0ABFB009A019B80180090594184
:1002500002980191103002904028CCDB00980BB03E
:10026000F0BD10B5202A04DB0846203AD04000211A
:1002700010BD0B46D340D0402024A21A9140084321
:10028000194610BD03460B439B0703D009E008C97C
:10029000121F08C0042AFAD203E00B780370401C36
:1002A000491C521EF9D27047D2B201E00270401CC4
:1002B000491EFBD270470022F6E710B513460A46E6
:1002C00004461946FFF7F0FF204610BD30B504463E
:1002D0000020034600E05B1C934203D2E05CCD5C4F
:1002E000401BF8D030BDF8B502464A40D40F42005A
:1002F0004B0052085B089A4202D202460846114659
:100300004A0023D0C30D4A00DDB2120EAD1A202DD3
:1003100035DA49020126490AF6058A19002C00D06F
:10032000524220214F1B1146B9402A411018C20DDC
:100330009A4221D0002C17D0012D08DCDA05801A52
:10034000D20F8019D207DBB200F053FBF8BDDA05FB
:10035000801A012340001B06C01880185A428018DA
:10036000CA0F1043490007E04908C2071143DA05E4
:10037000801A80194008801800F033FBF8BD610036
:100380000122511A001BF7E70122D2075140AAE7C8
:100390000122D2075040A6E7024670B54A40D30F6B
:1003A000DB0740002DD04A002AD0010E140E0002B7
:1003B00012020919400A520A8418E50104465443FE
:1003C000000A120A2E045043A4194219200CC543F6
:1003D000AA18120C0125AD03521C521912047F39C0
:1003E000240400D0521C104301D44000491EC2B264
:1003F0000C06C0092018401C4008802A02D003E0E7
:10040000002070BD40084000002900DA0020184399
:1004100070BD70B502464A40D50F40004A00ED0756
:1004200040085208002814D0002A12D0C40DD30D61
:1004300041020120C0055202490A520AE41A091871
:1004400012187D34914201D3641C00E04900002C55
:1004500001DA002070BD0023914201D3891A0343C1
:10046000400849000028F7D100290AD0914202D162
:100470000121C90705E0914201D2012101E00121DA
:10048000C943E005C018401900F0ABFA70BD420046
:1004900005D04200120E52428A4201DB0020704712
:1004A000C905081870470000F0B5074608465840CF
:1004B00087B0C00F049048000E4659004008490814
:1004C000BC1A884105D2384631461E4617460B46AF
:1004D00002465800400810434DD0300D03904005AF
:1004E0005900400D490D0590401A0290402873DADA
:1004F00018030121000B090508430190049800929C
:10050000002806D01146019A4942002090410091EE
:100510000190029840210A1A0199009800F03EFAD1
:1005200005460C466B4607CB00F048FAC0197141EE
:10053000039A0E0D0023D71756401A467A401643E9
:1005400044D0049A002A2DD0029A012A039A15DC7D
:100550001205C01A914101263605001C7141D20FC7
:10056000059ED2070093019202962A46234600F088
:1005700086FA07B0F0BD38463146FAE71605234A39
:100580000F46B218C01AB74101210905001C4F419E
:1005900000187F41114618187941E20F10436D1978
:1005A000644113E0E2076D0815436408C207144371
:1005B000039A01261205C01A91413605001C7141AB
:1005C000CE07400830434908C01851412A46234607
:1005D00000F048FACDE7FFE7049801224000C11778
:1005E000121A00238B4104983146C417381AA141CE
:1005F000EEE730B40124E407634030BC54E730B484
:100600000124E407614030BC4EE700000000E0FF39
:10061000F0B51FB488B00B99099800244840099997
:10062000C00F490049080991C0070B990090490083
:1006300049080B9109990898A64608431CD00B99C4
:100640000A98084318D0099801244000420D480038
:10065000410D099824050003000B204309900B98D5
:100660000003000B20430B9050181C494018002237
:1006700001901446104605E0002001460DB0F0BD83
:10068000032801DA034600E003239C46C11A0AAEA0
:100690000AE05F0008ADED5B4F00F75B7D4300278C
:1006A000AA187C41491C5B1E6145F2DD410004AB88
:1006B0005A522104120C0A43240C401C0828DFDB88
:1006C000019802900099704601910090059B049A50
:1006D0000799069800F0D3F9D0E700000DFCFFFF62
:1006E000F0B50C465C4085B0E40FE40703944C0081
:1006F000002664085900944649080246029622439F
:1007000021D062460A431ED06200570D4A000E03F4
:100710002303550D012402462C492405781B1B0B8D
:10072000360B401823432643614600901C46501A5E
:10073000B44103D30098401C009002E09218009846
:100740005B41002803DA0020014605B0F0BD00201F
:10075000012109050746864611E064461D46141B23
:10076000B54106D36546521BB341744607430C435B
:10077000A646CD0740084908284392185B41054624
:100780000D43EAD11046184313D060461946504035
:100790007140084306D06046101AB34106D20122C8
:1007A000002306E000220123DB0702E00122D243FE
:1007B0005310009874460105381C6141029C039D4A
:1007C0000019694100F04EF9BFE70000FD03000089
:1007D00070B54B005B0803430BD04B005C0D00264B
:1007E00033466542B341D417AD1AA34102DB002062
:1007F000014670BD12053018514170BDC217C10FBE
:10080000504010B54018CA079623002100F0F1F8B7
:1008100010BD10B500229623114600F0EAF810BD75
:100820000EB5C217C10F5040CA0740180021054B32
:100830000293019200910A460B4600F020F903B0A2
:1008400000BD000033040000C20F4100400201233C
:10085000400ADB05D207090EC0187F2901DA002003
:100860007047962903DC9623591AC84001E096394F
:100870008840002AF4D040427047410040020122E3
:10088000400AD205090E80187F2901DA002070473E
:10089000962903DC9622511AC84070479639884041
:1008A0007047000070B5CD0F4A0009030123090B02
:1008B0001B0519430B4BED070024520D9A4201DA38
:1008C000002070BD074B34339A4203DC9A1AFFF7BD
:1008D000C8FC02E00449511888402C43F1D0404242
:1008E00070BD0000FF030000CDFBFFFFC20FD20769
:1008F000400040080BD0C10D0723DB01C91840029E
:100900000905400A1143C2084007114370470020FF
:100910000146704710B5002904DB0124E40740427A
:100920008C412146002B04DB1C460123DB0752428D
:10093000A3418B4200D1824210BD000010B50029B6
:1009400004DB0124E40740428C412146002B04DBF8
:100950001C460123DB075242A341994200D1904239
:1009600010BD0000CB0FDB07490010B54908024657
:100970000A4307D00A0D07240903E401090B121BDF
:10098000002A01DC002010BDC900440F0C43C10047
:10099000E018D205801800F024F810BD10B5202A08
:1009A00004DB0146203A9140002010BD91402023F5
:1009B0009C1A0346E3401943904010BD10B5202A0D
:1009C00006DBCB170846203A1041C1170B4306E05F
:1009D0000B461341D0402024A21A914008431946E7
:1009E00010BD002904DA401C490001D14008400034
:1009F000704770B40024050C05D11024000402D106
:100A0000002921D01124050E01D100020834050F60
:100A100001D10001241D850F01D18000A41C0028F4
:100A200001DB4000641C002908D020252E1B0D4648
:100A3000F540A14000D001212943084301061B1BBA
:100A4000000ADB1D02D5002070BC7047DB051818BA
:100A500080180029F8DA401C4900F5D170BC400824
:100A60004000704710B5002B08DA0024401C61419B
:100A700092185B411A4301D14008400010BDF0B507
:100A80001FB482B005460C0003D0084603F0BCF842
:100A900002E003F0B9F820300246009021462846D3
:100AA000FFF77CFF049B059A04460F461843114349
:100AB000084314D0184610431BD0009840210A1A4E
:100AC00018460599FFF7CDFB05460E46009A059995
:100AD0000498FFF763FF084305D0012004E0204697
:100AE000394607B0F0BD0020C11705430E432C4323
:100AF000374300990E986305401A7905E40A0022ED
:100B00000C43FD0A0A3002D500200146E9E7010541
:100B1000101969410C9C0D9D00196941FFF7A2FF56
:100B2000DFE700004A0009030123090B1B051943F5
:100B30000A4B10B5520D9A4202DA0020014610BD50
:100B4000064B34339A4203DC9A1AFFF78AFB10BD36
:100B5000034BD218FFF722FF10BD0000FF03000077
:100B6000CDFBFFFF064C0125064E05E0E36807CCF0
:100B70002B430C3C98471034B442F7D3FFF79EFA4E
:100B8000487F0008687F0008FEB500231A461B1A3C
:100B90008A4103DB0020014603B0F0BD4A000D038B
:100BA00001212D0B0905520D0D43D10702D100186B
:100BB0006D41521E5110FF31FF31013100270446B3
:100BC0003E46384600970191024601210020090562
:100BD000FFF747FBC3197141F818324684468E4629
:100BE0004A4161462846611A904104D36046241A5E
:100BF000954176461F46241900986D41401C00908F
:100C00003428E1DDF91930467041091BA84103D2AF
:100C10000022D243134601E0002213460198010549
:100C2000381C7141FFF71EFFB6E772B6FEE770B5DC
:100C30000024014620314A78022A03D0042181632E
:100C4000012416E0026813680E25AB4313600268A6
:100C500013685B085B0013600122056C1346AB4010
:100C6000C56B6B604A7000220A70416B002900D08E
:100C70008847204670BD20304078704770B50446E4
:100C800000F0E6F80546601C02D0044800782418FD
:100C900000F0DEF8401BA042FAD370BD70000020C7
:100CA000F8B5002303240125BAE02E469E40B44641
:100CB00032407CD00E79B607B60F012E01D0022E3D
:100CC00017D186682746B6465E00B740009676463E
:100CD000BE43B646CF68009EB7407646374387602E
:100CE00046686746BE430F79FF06FF0F9F403743B4
:100CF00047600E79F643B6070ED0C6682746B4465D
:100D00005E00B646B7406646BE43B4468F68764638
:100D1000B74066463743C7600E79B607B60F022E56
:100D200014D1DE08B60036180096366A5F07B4465E
:100D3000FE0E0F27B646B7406646BE43B4460F695F
:100D40007646B74066463743009E376206682746B8
:100D5000B4465E00B646B7406646BE430F79B44619
:100D6000BF07BF0F7646B7406646374307604E68F9
:100D7000B603B60F53D02D4FBE692E43BE61BE6978
:100D80009F08F607F60F2A4EBF00BE190096B668F8
:100D90000F27B4469E07360FB646B7406646BE4399
:100DA0000927FF06B446B84202D1002710E036E01A
:100DB000204FB84201D101270AE01F4FB84201D1AC
:100DC000022705E01D4FB84201D1032700E00527A7
:100DD0007646B74066463743009EB760184E366881
:100DE0004F689643FF0300D51643154F3E607E685B
:100DF0004F689643BF0300D51643114F7E60BE680F
:100E00004F689643FF0200D516430D4FBE60FE6843
:100E10004F689643BF0200D51643094AD6605B1C53
:100E20000A681646DE4000D03FE7F8BD00100240D9
:100E3000000001400004004800080048000C004881
:100E400000040140002A01D081617047816270472F
:100E500001488068704700007000002070B50246AD
:100E600040325378202B1CD11378012B19D0012349
:100E7000137024245470046825689D432560046819
:100E800025681E03B5432560046825680D43256069
:100E90000068016819430160202050700020107024
:100EA00070BD022070BD70B5024640325378202BD1
:100EB0001BD11378012B18D00124147024235370F4
:100EC00003681D68A5431D6005682B680F26360260
:100ED000B343090219432960006801682143016096
:100EE000202050700020107070BD022070BD70472F
:100EF000704770B503689A691968D243D40508D45D
:100F0000CC43240605D4446C01252C4344642C02B4
:100F1000DC61530509D4CB431B0606D4436C08247B
:100F200023434364E3010468E361920509D4C943A0
:100F3000090606D4416C0222114341641102026881
:100F4000D161416C0B22114201D001F025FB70BD33
:100F5000026891691268436B002B00D018477047F4
:100F60007047000070B5040006D02546403568780B
:100F70000026002802D005E0012070BD2E7020461A
:100F800000F09CF924206870206801684908490035
:100F900001600F21606809068843216808612168A3
:100FA0008A680120C00382438A60E1680129A16840
:100FB00008D021229202114322689160E16802293F
:100FC00002D005E00143F7E701212268C902516020
:100FD00021684A680F4B1A434A602168CA688243F5
:100FE000CA60616920690843A16909020843216850
:100FF000C860216AE06908432168086020680168C8
:101000000122114301606664202068702663AE707F
:10101000002070BD0080000270470000FFB505464B
:1010200004464035687883B0202875D10C98002894
:1010300014D00D98002811D0287801286CD00120F8
:101040002870FFF705FF0746012200901923D103FE
:10105000204601F082FD002874D103E00120400207
:1010600060646FE0222068704020A87000266664EB
:101070000C9860620D98608566630E9800900197E9
:1010800004A90EC9204601F049FC002801D02E70A9
:1010900058E0618D3448FF2905D9FF2222850123BC
:1010A0001B06009006E0618D21850090208D0123B4
:1010B000C2B25B062046049901F028FD0097002289
:1010C000042120460E9B01F048FD00283AD12068FB
:1010D000406A616A0870606A401C6062208D401E30
:1010E00081B22185608D401E6085608D00281FD0F3
:1010F00000291DD100970022802120460E9B01F07F
:101100002CFD00281ED1608DFF2806D9FF222285E4
:1011100001231B06009607E024E0608D20850096E1
:10112000208D0123C2B25B062046049901F0EEFC3B
:10113000608D0028C2D13A4620460E9901F034FD58
:10114000002802D0012007B0F0BD20682021C16135
:1011500020684268054B1A4042606970AE702E707C
:101160000020F0E70220EEE70024008000E800FE07
:10117000FFB5054604464035687883B0202872D113
:101180000C98002814D00D98002811D02878012838
:1011900069D001202870FFF75BFE0746012200900E
:1011A0001923D103204601F0D8FC002871D103E0B7
:1011B0000120400260646CE0212068704020A8702B
:1011C000002666640C9860620D98608566630E98D0
:1011D0000090019704A90EC9204601F0CFFB00281A
:1011E00001D02E7055E0608DFF2805D9FF222285A1
:1011F00001231B06009606E0608D20850096208D59
:101200000123C2B25B062046049901F07FFC3A46F6
:1012100020460E9901F0EEFC00283AD1606A216860
:1012200000788862606A401C6062608D401E608544
:10123000208D401E80B22085618D00291FD000289E
:101240001DD100970022802120460E9B01F085FCD5
:1012500000281ED1608DFF2806D9FF222285012398
:101260001B06009607E024E0608D20850096208D07
:101270000123C2B25B062046049901F047FC608D51
:101280000028C4D13A4620460E9901F08DFC002872
:1012900002D0012007B0F0BD20682021C161206884
:1012A0004268054B1A4042606970AE702E70002093
:1012B000F0E70220EEE7000000E800FEF0B587B09E
:1012C000044614216846FEF7F6FF244F26680122E3
:1012D000234C92041225012103232248BE4218D137
:1012E000666916436661666902911640C0220596DA
:1012F00004910195039300926946FFF7D1FCE169DF
:10130000012040050143E161E1690140059107B019
:10131000F0BD154FBE42FAD1666916436661666933
:1013200002911640032292020596049101950393BF
:1013300000926946FFF7B4FCE16901208005014392
:10134000E161E1690022014005911146182000F099
:1013500069F8182000F05AF8D9E70000005400405E
:1013600000100240000400480058004070477047D9
:1013700002488168027889188160704770000020F7
:1013800010B506480168102211430160002000F0EA
:1013900007F800F027F8002010BD000000200240F0
:1013A00070B504460D4D7D202978C000FEF79CFEE7
:1013B00001460B480068FEF797FE00F02DFE00285E
:1013C00009D1042C07D200222146401E00F02AF841
:1013D00000206C6070BD012070BD00007000002016
:1013E0007C00002008B50848816901221143816111
:1013F000816911400091C26901040A43C261C06958
:101400000840009008BD000000100240002805DBE5
:10141000C106C90E012088400149086070470000DC
:1014200000E100E010B502F059FC10BDF8B505462A
:101430000068354CC00352D5E0690026C00007D4CF
:10144000E16920040143E161E16901400126009165
:101450002E480168C90510D4016882151143016046
:10146000FFF7F6FC074604E0FFF7F2FCC01B642818
:1014700024D826480068C005F6D5206A03273F0215
:10148000384020D06968394081421CD0206A226AE5
:10149000B843012109040A432262226A8A43226274
:1014A0002062C0070FD0FFF7D3FC009008E0FFF7E1
:1014B000CFFC0099411A1648814201D90320F8BD9A
:1014C000206A8007F3D5206A6968B8430843206220
:1014D000002E04D0E169012000078143E1612878F2
:1014E000C00705D0206BA9688008800008432063EE
:1014F0002878800605D5206B10218843E9680843C9
:1015000020630020F8BD0000001002400070004081
:1015100088130000F8B50F46060059D03A4D2868E8
:10152000C007C00FB84209D22868400840003843BD
:1015300028602868C007C00FB84249D13068334CD2
:1015400081070CD5400704D56068072109020843CC
:1015500060606068F0218843B1680843606030785B
:10156000C00726D0706801280ED0216802280ED04E
:10157000890700292CDA61688908890001436160C4
:10158000FFF766FC00900DE021688903F1E789010F
:10159000EFE7FFF75DFC0099411A1D48814201D930
:1015A0000320F8BD60680C210840716889008842FA
:1015B000EFD12868C007C00FB8420BD9286840088F
:1015C0004000384328602868C007C00FB84201D0E7
:1015D0000120F8BD3078400706D560680721090270
:1015E0008843F1680843606000F028F86168094AA0
:1015F0000906090F515CC840074908600020FFF741
:10160000CFFE0020F8BD0000002002400010024084
:1016100088130000F07D00087C0000200448054984
:1016200000684968044A4905490F515CC840704741
:101630007C00002000100240007E000810B514A3BA
:101640000FCB88B06C460FC415A30FCB0FC4184A3C
:1016500051680C200B4603401648042B16D0082B6B
:1016600014D18B021B0F6C46E45CD26A04AB1207E8
:10167000120F9A5CC90305D500231946FEF75EFDDB
:10168000214601E020460C4902F0EDFA08B010BDF9
:1016900002030405060708090A0B0C0D0E0F1010B3
:1016A0000102030405060708090A0B0C0D0E0F10B2
:1016B0000010024000127A0000093D00FEB504004F
:1016C00070D02078DC4DC0074AD068680007800FD2
:1016D000012807D068680007800F022809D16868D0
:1016E000C00306D5286880033AD560680028E7D093
:1016F00036E06168012914D001208004002901D05E
:10170000052914D02A68012109048A432A6029681E
:10171000814329606068002816D0FFF799FB0646D0
:101720000EE028680121090408432860F2E72968CF
:1017300001432960F5E7FFF78BFB801B64286ED817
:1017400028688003F7D50BE0FFF782FB064604E02C
:10175000FFF77EFB801B6428F1D828688003F7D44C
:1017600020780126800700283CDA68680007800F8F
:1017700007D068680007800F022809D16868C00395
:1017800006D42868800716D5E06801280AD112E03F
:10179000E0680028286816D030432860FFF758FB1F
:1017A000074605E043E1FFF753FBC01B0228C6D8FC
:1017B00028688007F7D52868F82188432169C9007F
:1017C000084328600EE0400840002860FFF740FB17
:1017D000074604E0FFF73CFBC01B0228AFD828688F
:1017E0008007F7D42078000722D5E0690028686ACE
:1017F0000ED030436862FFF72BFB074604E0FFF78B
:1018000027FBC01B02289AD8686A8007F7D50FE02B
:10181000400840006862FFF71BFB074605E09DE0BB
:10182000FFF716FBC01B022889D8686A8007F7D427
:10183000207804274007002860DA00200190E8693A
:10184000C00008D4E969B8060143E961E9690140CB
:1018500001200091019079480168C90511D40168FF
:10186000821511430160FFF7F3FA009005E0FFF7DE
:10187000EFFA0099401A642870D870480068C005D3
:10188000F5D5A06801280AD0002801D0052810D07D
:10189000286A400840002862286AB84301E0286AA4
:1018A00030432862A068002812D0FFF7D1FA0090D8
:1018B0000AE0286A38432862F1E7FFF7C9FA00997D
:1018C000411A5F48814249D8286A8007F5D50DE062
:1018D000FFF7BEFA009006E0FFF7BAFA0099411A46
:1018E000574881423AD8286A8007F5D401980028E1
:1018F00004D0E969012000078143E9612078C0062E
:1019000035D5606901280CD0401D686B23D0384361
:101910006863686B400840006863FFF799FA064601
:1019200022E0686B38436863686B30436863FFF795
:101930008FFA064604E0FFF78BFA801B02285BD87B
:10194000686B8007F7D5686BF8218843A169C900E7
:10195000084368630BE0B8436863F4E74CE0FFF7C3
:1019600077FA801B022847D8686B8007F7D4206A73
:1019700000285ED069680907890F022942D0012634
:1019800036060228286805D0B0432860FFF760FAC1
:10199000044633E0B0432860FFF75AFA074604E0F4
:1019A000FFF756FAC01B022826D828688001F7D412
:1019B000E86AE16A000900010843E862616AA06A16
:1019C000084369683D22120491430843686028680F
:1019D00030432860FFF73CFA044604E0FFF738FA8A
:1019E000001B022808D828688001F7D521E0FFF7FE
:1019F0002FFA001B022801D90320FEBD28688001B0
:101A0000F5D416E00128F8D06868E96A01221204CA
:101A1000636A02409A420AD10907E26A090F9142B9
:101A200005D10F2189040840A16A884201D0012014
:101A3000FEBD0020FEBD000000100240007000400E
:101A40008813000070470000F8B5016804464A6832
:101A50008868C043430606D5C30704D1D3435B0659
:101A600001D4E16C05E0830706D4D3431B0603D4FD
:101A7000216D20468847F8BD830603D5430601D56E
:101A8000C305F8D4D3439B06F5D42346450640331B
:101A9000002D09DB5D7F032D48D0256E04263543DC
:101AA0002566CD688D680095860601274025002EA5
:101AB00007DB266E3E4326668E6800960E68AE43B0
:101AC0000E60C00506D4206E0821084320662068F9
:101AD00080680090206E0028CDD020684168E02604
:101AE000B14341605F77900701D4D00722D02068CE
:101AF0004168890889004160A06D104E002808D017
:101B00004663A06DFFF793F8002802D0206E2843AB
:101B10002066606D0028AED04663606DFFF787F8E1
:101B20000028A8D0206E28432066F8BDC8688868C1
:101B30000090F8BD2046FFF785FFF8BD5933000837
:101B4000F8B504000CD0606A002500280AD0256191
:101B5000656126464036A562707F002808D00BE0FC
:101B60000120F8BD6168C81FFD38F2D0E561F0E7DB
:101B70003577204600F05CF8022272772068016811
:101B80004023994301600723E1681B02994201D970
:101B9000002001E0012000030F273F02B94202D0DC
:101BA000994200D0A562FF236168053319402127BF
:101BB000A368BF023B40194323691340227D1943A8
:101BC000D207D20F11430123A2695B021A401143CD
:101BD000E26938231A401143226A80231A401143D4
:101BE000A26A9B011A40114322681160A169042274
:101BF000090C1140626A10231A401143626B0823DA
:101C00001A4011430F23E2681B021A4011430122BC
:101C1000120310400143206841602068C1695210DE
:101C20009143C1612566012070770020F8BD000056
:101C300070B586B0044614216846FEF73CFB1E4989
:101C40002068884235D11D48826981140A43826127
:101C500082690A400592426949010A434261426928
:101C60000A400592426949000A43426140690024E2
:101C700008400590C8100090022503260920029410
:101C80006946039601950494C006FFF709F83820C9
:101C90000090029469460396019504940848FEF763
:101CA000FFFF002211461920FFF7BCFB1920FFF7A8
:101CB000ADFB06B070BD00000030014000100240D6
:101CC00000040048FFB5054604464035287F00273C
:101CD00081B01646012809D001202877FFF7B8F80F
:101CE0000090687F012804D0022795E0022005B00B
:101CF000F0BD0298002872D0002E70D003206877C3
:101D0000002020660299A163A687E6872064A88048
:101D1000E8802065E0640122A068D203402190425F
:101D200008D1206802688A430260206802680B02BA
:101D30001A43026020680268520602D402680A430D
:101D400002600721E06809028842606826D90028FD
:101D500001D0012E1ED1A06B21680088C86006E06A
:101D600020688168890709D5A16B0988C160A06BCB
:101D7000801CA063E08F401EE0870BE0FFF768F84F
:101D80000099411A0498814202D3401C02D039E0E4
:101D9000002837D0E08F0028E2D126E0002801D0CB
:101DA000012E1FD1A06B21680078087306E020681F
:101DB0008168890709D5A16B09780173A06B401C64
:101DC000A063E08F401EE0870CE0FFF741F8009928
:101DD000411A0498814203D3401C03D012E01AE058
:101DE00000280FD0E08F0028E1D12046009A049906
:101DF00001F0BBFA002801D020202066A06800284E
:101E000002D005E0032707E02068C16880680090E1
:101E1000206E002800D00127012068770020287755
:101E2000384664E7FFB5044683B0012001900020E6
:101E3000254640350090287F0C9F1E4601280FD074
:101E400001202877FFF704F80290687F6168012875
:101E50000DD0CA1FFD3A08D1A168002905D102E0C2
:101E6000022007B0F0BD042801D00220D1E0049880
:101E7000002820D0059800281DD0002E1BD0687F98
:101E8000042801D005206877002020660599216488
:101E9000EE80AE800499A163E687A687E0642065A2
:101EA00007210120E268090200038A422268536880
:101EB00003D9834302E00120ABE003435360206871
:101EC0000268520603D4026840231A430260E068A5
:101ED0008842606844D9002801D0012E39D1A06B16
:101EE00021680088C860A06B801CA063E08F401E42
:101EF000E0872EE020688168890710D5E18F0029EE
:101F00000DD0019901290AD1A16B0988C160A06B8C
:101F1000801CA063E08F401EE087002001902068B5
:101F20008168C9070DD0E98800290AD0C068216CF2
:101F30000880206C801C2064E888401EE880012016
:101F40000190FEF785FF0299401AB84201D3781C30
:101F50005ED1E08F0028CDD1E8880028CAD146E0C4
:101F6000002801D0012E3CD1A06B216800780873B5
:101F7000A06B401CA063E08F401EE08731E020682A
:101F80008168890710D5E18F00290DD001990129B9
:101F90000AD1A16B09780173A06B401CA063E08F8C
:101FA000401EE0870020019020688168C9070DD09D
:101FB000E98800290AD0007B216C0870206C401C45
:101FC0002064E888401EE88001200190FEF740FF71
:101FD0000299401AB84202D3781C02D018E0002FB0
:101FE00016D0E08F0028CAD1E8880028C7D139462A
:101FF0002046029A01F0B9F9002803D00120009090
:10200000202020660120687700202877009828E7A4
:1020100003200090F6E70000094910B5401E8842F1
:1020200001D9012010BD074C60610321081F01F098
:1020300055FE0020A06107202061002010BD000097
:10204000FFFFFF0000E000E070B5040005D025466A
:102050002035687F002802D006E0012070BD0020F6
:102060002877204600F014F802206877211D2068A8
:1020700001F0C2FA01204034A071A877E8772070FF
:102080006070A070E070207160716877002070BD92
:1020900008B500680549884207D10548C26981151D
:1020A0000A43C261C0690840009008BD002000409A
:1020B0000010024010B586B0044614216846FEF7B1
:1020C000FAF80D492068884213D10C484269490149
:1020D0000A43426140690840059002200090019047
:1020E0000120029000200390049069460448FEF706
:1020F000D7FD06B010BD00000020004000100240D7
:1021000000040048F8B5064604462036307F002714
:102110000D4601280ED001203077002A0CD0042A69
:102120001BD0082A2FD00C2A3ED001270020307760
:102130003846F8BD0220F8BD206801F0AFFA2068EB
:1021400081690822114381612068826904218A43E0
:102150008261206881692A6912E0206801F0E2FA50
:10216000206882690121C9020A438261206881696D
:102170000122920291438161206881692A691202D9
:1021800011438161D2E7206801F00CFB2068C1692E
:1021900008221143C1612068C26904218A43C261D7
:1021A0002068C1692A6912E0206801F03DFB2068BF
:1021B000C1690122D2021143C1612068C2690121B3
:1021C00089028A43C2612068C1692A6912021143E7
:1021D000C161ABE770B5040005D025462035687FA6
:1021E000002802D006E0012070BD0020287720469C
:1021F00000F014F802206877211D206801F0FCF936
:1022000001204034A071A877E87720706070A0703A
:10221000E070207160716877002070BD7047000029
:1022200030B504460222203000290AD004290DD0FE
:102230002046403008290ED04378012B10D00120D1
:1022400030BD837F012BFAD182770AE0C37F012B57
:10225000F5D1C27705E00378012BF0D1027000E0E0
:1022600042700122206801F00BFA12492068124BDB
:10227000884207D0984205D0104A904202D0104AB6
:10228000904204D1426C0125ED032A434264206848
:102290000122884204D00B49884201D0984204D1DF
:1022A00081684907490F062902D00168114301607E
:1022B000002030BD002C014000400140004401409E
:1022C000004801400004004010B5040003D0A06F96
:1022D000002802D007E0012010BD00217420015524
:1022E000204600F027F82420A067206801684908EC
:1022F00049000160204601F065FB0128ECD0606ACE
:10230000002802D0204601F0C5FA20684168012269
:10231000D202914341602068816808229143816024
:1023200020680168012211430160204601F018FB7A
:1023300010BD000010B586B0044614216846FDF7B4
:10234000BAFF1349206888421FD1124882690121CF
:1023500089030A43826182690A4005924269C90081
:102360000A43426140690840059003204002009002
:10237000022001900020029003200390012004908D
:1023800009206946C006FEF78BFC06B010BD0000B0
:102390000038014000100240FFB50446806F83B052
:1023A00017460D4620285ED1002D0AD0002F08D0F8
:1023B000A168C001814207D12069002804D1E80743
:1023C00002D0012007B0F0BD204660300090007DB3
:1023D000012848D000980121017500208021085172
:1023E0002120A067FEF734FD264640360190378253
:1023F00077820120A1680003814202D12069002870
:1024000005D02F46002500990020087511E000270F
:10241000F9E700228021204601F06EFB002815D14B
:10242000002F15D02168387808857F1C708A401EDF
:102430007082708A019B002806980090E9D10022E2
:102440004021204601F058FB002808D00320B9E7BE
:1024500028882168C005C00D0885AD1CE6E720204E
:10246000A0670020AEE70220ACE7FEE710B5064803
:10247000006880694005400F034802D0FEF739FD2F
:1024800010BDFEF765FD10BDE400002010B5406AE8
:102490000021826B002A00D05163C26B002A00D059
:1024A000516300F047FB10BDF0B504460022CE0793
:1024B00040342823B025002E05D0667842221F46DE
:1024C000B74300D0F2228E0705D544266478324304
:1024D000A34300D02A43CB0B01D0B8231A431029C1
:1024E00008D0202907D0402905D000680168914311
:1024F0000160F0BD90210A43F7E701688A69D24381
:10250000920701D400228A6200688169C943C90721
:1025100003D081690122114381617047F8B50546F6
:1025200004464035687828218143206804D008217A
:10253000C16100202870F8BD8169C903CF0F81698E
:10254000FE230E0C81681E408A05C168920D194059
:102550008C46E168022916D10621D3090E400B40B2
:102560009E420FD1A16C491CA164A16C0229E2D149
:102570000021A1640823C361297039462046FEF773
:10258000B7FCF8BD66460121C9032046FFF78CFF62
:10259000002028703246F0E7F8B50546044640357D
:1025A00068780026AE70334AE2626685626C0A4340
:1025B000626428281ED029281CD02A281AD02E4927
:1025C0002046FFF771FF6878602801D020206870EE
:1025D0006663206BA16B294F002903D0112812D00C
:1025E000212810D0E16B002925D0122827D02228DD
:1025F00025D020E003212046FFF756FF28206870F1
:102600001F486063E5E720680168490404D5016854
:102610000122920391430160A06BFEF72CFB01287D
:1026200009D0A06B47632E70A06BFEF700FB00285B
:1026300004D0A06B1AE0204600F07CFAF8BD2068B8
:102640000168090404D501680122D20391430160A5
:10265000E06BFEF710FB0128EDD0E06B47632E70B6
:10266000E06BFEF7E4FA0028E8D0E06B416B8847A6
:10267000F8BD00000000FFFF038000008D2400086B
:10268000DD29000870B504461648E0620025256380
:10269000202220464030064642708570C84365635C
:1026A000400712D42068406A616A0870606A401C62
:1026B0006062208D002808D0401E2085608D401E5D
:1026C0006085606C04210843606407492046FFF779
:1026D000EBFE21681020C86135702046FEF79CFC97
:1026E00070BD00000000FFFF03800000F8B5026825
:1026F000044616680546403568780F462021D161AA
:10270000212806D0292804D0222808D02A2806D03B
:102710000CE042492046FFF7C7FE212005E03F4973
:102720002046491CFFF7C0FE222020632068416834
:102730000122D2031143416020684168384A1140A8
:1027400041602046FFF7D9FEF043410407D42068DA
:1027500001680122920391430160A06B08E000042C
:102760000BD4206802680121C9038A430260E06B30
:10277000002802D0006840686085F84340070421C3
:1027800000280FDB20688F43406A626A1070606A1D
:10279000401C6062208D002804D0401E2085608D82
:1027A000401E6085608D002802D0606C0843606424
:1027B0000026AE706663606C00280BD0616C20460A
:1027C000FFF7EAFE6878282803D139462046FFF74C
:1027D00059FFF8BDE06A134FB8420BD0204600F015
:1027E00023F8E7622020687026632E702046FEF7EB
:1027F00013FCF8BD6878222807D020206870266373
:102800002E702046FEF7B3FDF8BD202068702663C9
:102810002E702046FEF7AAFDF8BD000001800000E2
:1028200000E800FE0000FFFF70B505460068016883
:1028300000262C464034A670C9434A0403D40168DC
:102840000122920304E0090404D401680122D203A6
:10285000914301606178282029290ED061782A29C6
:102860000AD160702220286302212846FFF71CFE4F
:1028700026702846FEF77AFD70BD6070212028631F
:1028800001212846FFF710FE26702846FEF76FFD4F
:1028900070BD0000F7B5044600680F468169C94362
:1028A000C90636D44168890104D4416801229203E3
:1028B0001143416000262546403520688069C043A9
:1028C000800612D5781CF8D0FEF7C2FA0299401A99
:1028D000B84201D8002FF0D1616C2020014361641F
:1028E0006870AE702E700120FEBD21681020C86196
:1028F00020682027C7612046FFF7FFFD2068416858
:10290000054A11404160606C0421084360646F70A7
:10291000E7E70020FEBD000000E800FEF8B5044631
:10292000164615481D46DAB20090079F0023204640
:1029300000F0ECF83A462046069900F05BF90028D2
:1029400018D12846F5B2012809D02168300A8862DA
:102950003A462046069900F04DF900280AD1206831
:1029600085620097002240212046069B00F0F5F882
:10297000002800D00120F8BD00200080F8B50446F2
:10298000164615481D46DAB2C3020090079F20463E
:1029900000F0BCF83A462046069900F02BF90028D2
:1029A00018D12846F5B2012809D02168300A88627A
:1029B0003A462046069900F01DF900280AD1206801
:1029C00085620097002280212046069B00F0C5F812
:1029D000002800D00120F8BD00200080FEB5C56AA7
:1029E00004460646403601913078012828D001205F
:1029F00030700198D743C04300908006002805DB63
:102A0000B80603D420460199FFF770FE00983D49AF
:102A10003D4AC00630D4F8062ED4638D1020002B1A
:102A200010D02168C861606C042108436064002DE7
:102A300001D0954262D1616C2046FFF7ADFD5DE0AB
:102A40000220FEBD7278282A08D101225206954242
:102A500004D120460199FFF715FE4FE07278292A2C
:102A600007D18D4205D02168C8612046FFF745FD9A
:102A700041E02168C86141E00098400717D4780719
:102A800015D4608D00280CD02068406A626A1070EE
:102A9000606A401C6062208D401E2085608D401E53
:102AA0006085608D002829D18D4224D126E00098D0
:102AB000000706D4380704D420460199FFF72EFDFD
:102AC0001CE00098800719D4B80717D4608D00283F
:102AD0000DD0606A216800788862606A401C60627C
:102AE000608D401E6085208D401E208506E0954249
:102AF00001D0002D02D12046FFF796FE0020307055
:102B0000FEBD00000000FFFF00000001F0B50668F8
:102B1000059C7568064F600D384385438805800D18
:102B2000110408431843204305437560F0BD0000BD
:102B3000FF63FF0310B5014640314B780022602B44
:102B400004D002630A70FEF70BFA10BD20234B700D
:102B500002630A70FEF7CBF910BDF8B51D461746A3
:102B60000E46044609E0681C07D0FEF771F9069985
:102B7000401AA8420BD8002D09D020688169304640
:102B800088430FD00020B842EDD00020F8BD616C22
:102B9000202001436164403460700020A0702070E8
:102BA0000120F8BD0120EEE770B516460D4604463B
:102BB0000FE0324629462046FFF76CFE002801D080
:102BC000012070BDFEF744F9801BA84208D8002DF3
:102BD00006D020688069C0438006EAD4002070BD1A
:102BE000616C202001436164403460700020A0705B
:102BF0002070E5E770B516460D46044611E03246F2
:102C000029462046FFF746FE002801D0012070BD6E
:102C1000681C06D0FEF71CF9801BA84208D8002DBE
:102C200006D020688069C0438007E8D4002070BDCA
:102C3000616C202001436164403460700020A0700A
:102C40002070E3E77CB514460D4606466B46062227
:102C50003B21682000F09EF800280BD169460988C6
:102C600049BA31806946498849BA298069468988C4
:102C700049BA21807CBD7CB514460D4606466B469C
:102C800006224321682000F085F800280BD1694610
:102C9000098849BA31806946498849BA2980694614
:102CA000898849BA21807CBD08B56B460222412142
:102CB000682000F06FF86846008840BA00B2FDF75F
:102CC000AFFD0022074BFDF70BFD074A074BFDF751
:102CD000EBFBFDF747FE0649FDF75EFBFDF7B4FD94
:102CE00000B208BD00407540A4703D0AD743424081
:102CF0000000C84210B580216B2000F09DF86420D0
:102D0000FDF7BCFF00216B2000F096F8032000F0D7
:102D10005AF8002000F050F8322000F075F8002139
:102D2000382000F089F800216A2000F085F80021A1
:102D3000232000F081F88021372000F07DF87520F5
:102D400000F012F8682801D0012010BD01216B208D
:102D500000F072F800216C2000F06EF8322000F0D4
:102D600053F8002010BD00001FB56423012203A901
:102D70006C460EC413460246D0210548FEF74EF9B4
:102D8000002802D0012004B010BD6846007BFAE79D
:102D9000E40000203EB5019240000A4664240093FE
:102DA0000146029401230348FEF738F9002800D0B9
:102DB00001203EBDE4000020C00610B5010E1C201D
:102DC00000F03AF810BDC00610B5010E1B2000F04F
:102DD00033F810BD10B5BC2801D3012110E06228E2
:102DE00001D302210CE02A2801D3032108E0142892
:102DF00001D3042104E00A2801D3052100E00621C3
:102E00001A2000F019F810BD10B504467D20C0004E
:102E1000844201D9044602E0042C00D20424214655
:102E2000FDF762F9401EC1B2192000F005F86008F4
:102E3000FFF7D0FF10BD000003B583B0642301226B
:102E4000029304A90192134600910246D02104483E
:102E5000FEF78EF9002800D0012005B000BD00006B
:102E6000E40000203EB5019240000A46642400932D
:102E70000146029401230348FEF77AF9002800D0A6
:102E800001203EBDE400002070B586B014216846E4
:102E9000FDF711FA16484269012149040A434261CB
:102EA00042690A400592426949000A434261406909
:102EB000332508400F4E2D0205900022294630464A
:102EC000FDF7C0FF0220002400900920019469460C
:102ED0000294C006FDF7E4FE0120019002946946C9
:102EE000009503943046FDF7DBFE06B070BD000090
:102EF000001002400004004810B513481149016059
:102F000012494160002181600161416181610122BA
:102F1000C161C2600162FEF725F8002801D0FDF70B
:102F200084FE00210848FDF799FF002801D0FDF735
:102F30007CFE00210448FDF7B6FF002801D0FDF714
:102F400074FE10BD00540040980000200E090020BF
:102F500010B5134811490160124941600021816098
:102F60000161416181610122C161C2600162FDF7BD
:102F7000F9FF002801D0FDF758FE00210848FDF7B1
:102F80006DFF002801D0FDF750FE00210448FDF739
:102F90008AFF002801D0FDF748FE10BD0058004010
:102FA000E40000200E09002010B511480F4901600F
:102FB000FF2105314160002103228160120201617D
:102FC000C2604161C16101220162520241628261BB
:102FD00081620722C262016308214163FEF7B0FDEE
:102FE000002801D0FDF721FE10BD00000030014097
:102FF0003001002010B588B01C216846FDF75BF950
:10300000164815490160002408218460416004616C
:1030100013498461C160FFF717F8002801D0FDF75C
:1030200004FE0E48FFF7D6F8002801D0FDF7FDFD9D
:10303000702000900194029400226946049407488D
:10304000FFF760F8002801D0FDF7EFFD0348FFF718
:1030500031F808B010BD00000020004094010020AD
:103060008813000010B50C480A490160E1214902AB
:10307000416000218160C16001618161C1610C22F8
:10308000016242614162FFF71FF9002801D0FDF79C
:10309000CCFD10BD00380140DC01002010B5002837
:1030A00023DD411E092901D8642004E001460B39C3
:1030B000092903D86E2000F049FA10BD01461539E0
:1030C000092901D87820F6E701461F39092901D8D6
:1030D0008220F0E701462939092901D88C20EAE746
:1030E00033380928E9D89620E5E70028E5DA0146D3
:1030F0000A310A2901D25020DDE7014614310A299C
:1031000001D24620D7E701461E310A2901D23C20D0
:10311000D1E7014628310A2901D23220CBE7014606
:1031200032310A2901D22820C5E73C300A28C4D20E
:103130001E20C0E7FEE770B500242046B030C0B2C4
:10314000002100F0C1F80021084600F0BDF8002180
:10315000102000F0B9F800250121002000F0B4F89B
:103160006D1CEDB2802DF7D3641CE4B2082CE4D3BF
:1031700070BD10B500218D2000F0A6F800211420AC
:1031800000F0A2F80021AF2000F09EF810BD000072
:1031900010B53321012209024048FDF753FE642097
:1031A000FDF76CFD0021AE2000F08EF800210846EE
:1031B00000F08AF80021102000F086F8002140205D
:1031C00000F082F80021812000F07EF80021CF205D
:1031D00000F07AF80021A12000F076F80021C82044
:1031E00000F072F80021A62000F06EF80021A8205F
:1031F00000F06AF800213F2000F066F80021D3209B
:1032000000F062F80021084600F05EF80021D520A9
:1032100000F05AF80021802000F056F80021D92053
:1032200000F052F80021F12000F04EF80021DA20E1
:1032300000F04AF80021122000F046F80021DB20BF
:1032400000F042F80021402000F03EF8002120204C
:1032500000F03AF80021022000F036F800218D201D
:1032600000F032F80021142000F02EF80021A420F4
:1032700000F02AF80021A62000F026F80021AF2057
:1032800000F022F80021AF2000F01EF8FFF753FFF6
:103290000021084600F004F810BD000000040048BA
:1032A00010B50446B031C8B2002100F00DF8200975
:1032B0000021103000F008F82007000F012108431A
:1032C000002100F001F810BDF8B51D4D064600299B
:1032D00001D0012200E00022012109032846FDF768
:1032E000B1FD0121002249032846FDF7ABFD002472
:1032F000FF270137002239462846FDF7A3FD300697
:1033000001D5012200E00022012149022846FDF7F3
:1033100099FD012239462846FDF794FD7006641C8C
:10332000060EE4B2082CE5D3012251032846FDF72E
:1033300089FD012211032846FDF784FDF8BD000038
:10334000000400487047000010B50248FEF77CFBFF
:1033500010BD00003001002010B5406A0021462257
:103360001152C187FEF76EFB10BDF8B50F460B4634
:1033700015460092032104460022C90200F01CF801
:103380002026002812D13B460022802120460095AD
:1033900000F07EF8002809D103213B4600224902B3
:1033A0002046009500F008F8002803D0206E304336
:1033B00020660320F8BD0000FFB585B00E46044628
:1033C000002069460E9D17460871FDF741FD411B1F
:1033D0000898451AFDF73CFD0390206823210C3026
:1033E00002902A4800684843000D684346E00320E5
:1033F0004002864206D1002F04D102980178684627
:10340000017100790898401C39D0FDF721FD03991E
:10341000401AA84205D2002D03D0009800282BD0D6
:103420002BE020684168E022914341606068C11F41
:10343000FD390CD10121A068C903884202D049118D
:10344000884204D120680168402291430160012034
:10345000A16A4003814207D121680A6882430A6059
:1034600021680A6802430A60012040346077002026
:103470002077032009B0F0BD0025401E0090206891
:1034800080683040B842B2D10020F3E77C000020D1
:10349000FFB581B01E4604460A9DFDF7D9FC401BCE
:1034A000351AFDF7D5FC0746264800684001000D97
:1034B000684339E0701C38D0FDF7CAFCC01BA84235
:1034C00005D2002D03D0009800282BD02BE02068D7
:1034D0004168E022914341606068C11FFD390CD111
:1034E0000121A068C903884202D04911884204D151
:1034F000206801684022914301600120A16A4003D5
:10350000814207D121680A6882430A6021680A68FB
:1035100002430A60012040346077002020770320B6
:1035200005B0F0BD0025401E00902068816802981B
:10353000884305D0002103988142BBD10020EFE7EA
:103540000121F8E77C0000207047000010B5FDF76E
:1035500067F9074A074BFDF75BF80022064BFCF7BB
:10356000A3FFFDF79FF905490968486310BD0000F6
:103570009A9999999999F13F000049409401002046
:1035800010B5FDF7F5FE10BD10B594B030216846BA
:10359000FCF791FE00240F9402200D9400901294E9
:1035A000012003900E94139410200C940490109416
:1035B000119408946846FEF781F8002801D072B68D
:1035C000FEE707200C900D940E9400210F940CA898
:1035D000FDF7A0FF002801D072B6FEE72120109071
:1035E0001294139410A8FDF721FF002801D072B6A1
:1035F000FEE714B010BD7047F0B502681A4B1B4CC3
:10360000984201D0A04203D17025AA434D682A43B5
:10361000174D184E184F98420AD0A04208D0174CA8
:10362000A04205D0A84203D0B04201D0B84205D193
:103630001446032212029443CA6822438024A24300
:103640004C69224302608A68C2620A6882629842B8
:1036500005D0A84203D0B04201D0B84201D10969D7
:10366000016301214161F0BD002C014000040040D4
:10367000004001400044014000480140002000405B
:1036800010B5CB06DB0E0121046A99408C4304621D
:10369000016A9A401143016210BD0000F0B5026A50
:1036A000520852000262056A436882697024A2438C
:1036B00092080C6892001443022295438A68164EC1
:1036C0002A43144DA84207D0B04205D0134FB84248
:1036D00002D0134FB84206D10827BA43CF68174328
:1036E000042297433A46A84207D0B04205D00B4D7A
:1036F000A84202D00A4DA84206D103252D02AB43B1
:103700004D691D438B692B43436084614968416364
:103710000262F0BD002C0140004001400044014025
:103720000048014070B5026A10239A430262056A9C
:103730004268836973242402A3430C6824021C4357
:1037400020239D438B681B012B43124DA84208D1B7
:103750001D46CB688026B5431B012B434025AB4358
:1037600008E00D4DA84205D00C4DA84202D00C4DEA
:10377000A84208D10325AD02AA434D69AD00154307
:103780008A6992002A4342608461496881630362C6
:1037900070BD0000002C0140004001400044014089
:1037A0000048014070B5026AFF2301339A43026268
:1037B000056A4368C2697024A24392080C689200AB
:1037C00014430122520295438A6812022A43124D81
:1037D000A84208D11546CA68C614B54312022A4346
:1037E0000515AA4308E00D4DA84205D00C4DA8428E
:1037F00002D00C4DA84208D103252D03AB434D69DF
:103800002D011D438B691B012B434360C461496833
:10381000C163026270BD0000002C01400040014005
:10382000004401400048014030B5026A01231B03F7
:103830009A430262046A4268C36973252D02AB434E
:103840000D682D021D4301235B039C438B681B0302
:1038500023430C4CA04208D00B4CA04205D00B4C8B
:10386000A04202D00A4CA04205D10124A403A243E5
:103870004C69A40122434260C56149680164036246
:1038800030BD0000002C01400040014000440140D8
:103890000048014010B5818CC90707D001684A680B
:1038A00001235B049A43836A1A434A60818C890727
:1038B00007D501684A6801231B049A43C36A1A4367
:1038C0004A60818C490707D501684A6801239B0437
:1038D0009A43036B1A434A60818C090707D5016834
:1038E0004A680123DB039A43436B1A434A60818C85
:1038F000C90607D50268916801231B039943836BAE
:1039000019439160818C890607D501688A68012373
:103910005B039A43C36B1A438A60818C490612D5B4
:1039200003685A6801210905046C8A4322435A60DE
:10393000026C8A4207D10268516803235B059943F0
:10394000436C19435160818C090607D501684A68A8
:103950000123DB04806C9A4302434A6010BD0000DF
:10396000F8B50446002680300660FDF771FA05467A
:1039700020680068124F000709D501212B4600225C
:1039800049052046009700F0B7F800280DD12068BF
:10399000006840070BD501212B46002289052046EF
:1039A000009700F0A9F8002801D00320F8BD2020DE
:1039B000A067E0672666603426750020F8BD000029
:1039C000FFFFFF0170B5044680682169E269084382
:1039D000616900251143226808431168404B194072
:1039E0000143116021684868032212039043E26892
:1039F00010434860A169206A084321688A680B2344
:103A00001B029A4302438A6036492068884210D1DB
:103A10003548006B8007800F0ED0012805D00228A2
:103A200005D003280AD1022109E0042107E008217A
:103A300005E02E49884201D1002100E0102101203B
:103A4000E369C0032A4A2B4E834223D1002906D0C2
:103A5000022907D0042907D0082937D108E0FDF74B
:103A6000DDFD03E0104603E0FDF7E8FD002831D05E
:103A7000616840004A088018FCF736FB80B20146B6
:103A80001039B14222D81B49491C01400007400FA0
:103A900008431DE0002906D0022907D0042907D0D9
:103AA000082913D108E0FDF7B9FD03E0104603E053
:103AB000FDF7C4FD00280DD061684A081018FCF716
:103AC00013FB80B201461039B14201D9012501E052
:103AD0002168C86000206066A066284670BD0000AE
:103AE000F369FFFF0038014000100240004400402D
:103AF00000127A00EFFF0000FFB581B005461746BF
:103B0000044660350A9E55E0701C53D0FDF7A0F9BD
:103B10000499401AB04230D8002E2ED02068016897
:103B2000490747D5C069C043000543D40120216837
:103B3000C0020862EFF31080012181F31088216830
:103B40000B68FF22A13293430B6080F31088EFF3E0
:103B50001080012181F3108821688A685208520080
:103B60008A6080F310882020A067E067803420609E
:103B700000202875032005B0F0BDEFF3108001216F
:103B800081F3108821680B68FF22A13293430B60F8
:103B900080F31088EFF31080012181F310882168F1
:103BA0008A68520852008A6080F310882020A0673B
:103BB000E067DDE72068C1690298884304D00020EF
:103BC000B842A1D00020D6E70120F9E710B513468E
:103BD0000A46014601A000F007F810BD25642C2517
:103BE000642C25640A0000000FB410B503A9044B2F
:103BF000044A029800F0D6F910BC08BC04B018477B
:103C00006D590008800000202021020C01D01021F5
:103C10001046020A01D010460839020901D01046A8
:103C2000091F820801D01046891E420801D0881E53
:103C30007047081A7047F8B504148BB2264682B252
:103C40005E430D1410463714584336048019002182
:103C5000794116466E433714360480197941264659
:103C60006E438919F8BDF8B5040C8BB2264682B2B2
:103C70005E430D0C1046370C584336048019002162
:103C8000794116466E43370C360480197941264631
:103C90006E438919F8BD30B47446641E2578641CDF
:103CA000AB4200D21D46635D5B00E31830BC184791
:103CB0004900CA020243100000D004204A0D01D07E
:103CC00001221043044A490D914201D102210843C7
:103CD000012800D105207047FF0700008307FF225D
:103CE000DB0E9A408907090E9940002808DB8308FB
:103CF00009489B001B1818689043084318607047D8
:103D00000007000F0838830804489B001B18D86977
:103D100090430843D861704700E400E000ED00E004
:103D2000F8B504464F1EC8000838211815461E462F
:103D3000086849683A4606239A4310D02A46334613
:103D4000FCF766FC3A46D200083AA3181A687F1EB0
:103D50005B68FCF7A9FB06223B469343EED1022F9A
:103D600023D0042F11D0062F2FD12A463346FCF73B
:103D70004FFCE36AA26AFCF797FB2A463346FCF73E
:103D800047FC636A226AFCF78FFB2A463346FCF73E
:103D90003FFCE369A269FCF787FB2A463346FCF740
:103DA00037FC63692269FCF77FFB2A463346FCF740
:103DB0002FFCE368A268FCF777FB2A463346FCF742
:103DC00027FC63682268FCF76FFBF8BD10B5012281
:103DD000FCF7FEFC10BD10B5FCF766FB10BD002221
:103DE00010B5134610461146FCF77AFC10BD0000D2
:103DF000034A10B500201107FCF7EAFC10BD0000D3
:103E000001FDFFFF02E008C8121F08C1002AFAD115
:103E100070477047002001E001C1121F002AFBD14A
:103E200070470000014908607047000084000020CE
:103E3000F0B51FB486B00998089A030D002102431B
:103E400014D05148514A18185043051411980128AC
:103E500010981AD0281A401C00264D4F4D49009644
:103E600001910490002812DA444211E011980124D3
:103E700049A3012801D11098C1430698119A846082
:103E80000360C26041600BB0F0BD4042E4E704460D
:103E9000210500203F4A001C51410391029012E08D
:103EA000E00707D032463B4601990098FCF7B0FB8B
:103EB0000191009032463B4610461946FCF7A8FB9C
:103EC00006460F466410002CEAD10498039B002894
:103ED000029A0999089806DAFCF79AFB019B009A66
:103EE000FCF796FB05E0FCF7FBFB019B009AFCF757
:103EF000F7FB04460E460022284BFCF71FFD03D8B3
:103F00000020C043014607E00022254B20463146F1
:103F1000FCF7CAFAFCF706FE102409E0002C0ADBC5
:103F20000A220023FCF70AF9079B30321A55641E57
:103F300002460A43F2D11122641C079B121B1C1972
:103F4000119B012B03D0012308430ED10AE0084343
:103F500004D0112010900020119077E71098151AC6
:103F60006D1E0BE01098824202DD00236D1C03E001
:103F7000824201DA00236D1E002BEED006981199C3
:103F80008260C16030C07EE701FCFFFF104D000081
:103F9000000014400000F03F300000000000F0433B
:103FA0000000E03FFFB597B0064600251BE225283C
:103FB00076D100242746F749049400E00443761C98
:103FC00032780120203A90400842F7D130782A28F0
:103FD0000ED00222307801463039092916D80499CA
:103FE0000A235943303940181443761C0490F1E7F2
:103FF000189802C804911890002904DA012040039F
:1040000004434842049002200443761C30782E2852
:1040100014D1042004437078761C2A2809D11898FA
:10402000761C80C8189009E00A214F43303FC71919
:10403000761C3078014630390929F5D930786C285A
:1040400010D006DC4C281AD068280ED06A2817D168
:1040500004E0742813D07A2812D110E00120400522
:1040600004430CE00121090501E0032109050C438B
:104070007178814203D1012000052418761C761C3A
:10408000307866280BD013DC58287DD009DC002856
:104090007BD04528F6D04628F4D047281AD1A9E18C
:1040A00018E0632835D0642870D0652812D1A1E1CA
:1040B00070286CD008DC6728F1D069287DD06E2884
:1040C0000DD06F2806D1BCE073282ED0752873D090
:1040D000782859D01A9A199990476D1C82E160028C
:1040E000400F022809D003280DD004281898016831
:1040F0000DD00D60001D189074E11898EA17016842
:104100000D604A60F6E7189801680D80F2E70D70BF
:10411000F0E718986A4601781172001D1890002087
:10412000507202A80090012005E0189802C818906B
:1041300000200091C04361070ED5002101E00199E4
:10414000491C0191B94213DA8142F8DB019A0099C6
:10415000895C0029F3D10BE0002101E00199491CA1
:1041600001918142FADB019A0099895C0029F5D11D
:10417000019904981A9B471A21463846199A00F06B
:1041800099FA4019019903E051E030E115E050E05F
:10419000451807E0009800990078491C00911A9A88
:1041A000199990470198401E0190401CF2D1214678
:1041B00038461A9B199A12E137E00A200021009034
:1041C00001916002410F022907D0189A01CA189282
:1041D000C2179446032908D00AE01898C01DC108E8
:1041E000C90005C91891944607E000B2C217944669
:1041F000042902D140B2C1178C4600226146944581
:1042000006DA0A460021404291418C462D2102E007
:10421000210504D52B216A461173012103E0E10732
:1042200001D02021F7E7029156E00A200AE0102091
:1042300008E0102000900021042004430191082789
:1042400003E008200021019100906002410F022943
:1042500007D0189A01CA189200229446032908D060
:1042600008E01898C01DC108C90005C918919446F6
:1042700003E080B2042900D1C0B2002102912107DD
:104280002AD531780D91702906D0009A1021019B12
:104290004A401A4305D00EE040216A4611730121BD
:1042A00008E06146014306D030216A4611730D993A
:1042B000517302210291009A0821019B4A401A433E
:1042C0000AD16146014301D1610705D530216A4613
:1042D000117301217F1E02913178582904D02EA13B
:1042E0000E910DA90D910DE030A1F9E76146019BFA
:1042F000009AFBF723FF0E9B8C469B5C0D9A521E87
:104300000D92137061460143F0D10D9805A9081A6A
:1043100020300190600703D501200004844300E0B1
:1043200001270198874201DD381A00E00020019939
:1043300000904118029809180498401A0490E0036C
:1043400006D421461A9B199A049800F0B3F945192E
:10435000002706E003A81A9AC05D199990476D1CC2
:104360007F1C02988742F5DBE0030CD521461A9B9F
:10437000199A049800F09EF9451904E01A9A302021
:10438000199990476D1C0099481E00900029F5DC92
:104390001FE0000009280100303132333435363750
:1043A0003839616263646566000000003031323381
:1043B0003435363738394142434445460000000021
:1043C0000D980D990078491C0D911A9A19999047EA
:1043D0006D1C0199481E01900029F1DC4DE100F0AF
:1043E00059F94519761C3078002800D0DFE52846B9
:1043F0001BB0F0BD600700D406271898C01DC10887
:10440000C90048680A680831C30FDB071891190012
:1044100001D09CA108E0210501D59BA104E0E107A2
:1044200001D09AA100E09AA14300109130785B0876
:1044300065280CD006DC452809D046281DD0472821
:1044400041D141E0662818D067283CD13CE00021EA
:10445000112F01DB112000E0781C0191009008A9C8
:1044600011A8FFF7E5FC139905910021119A159207
:104470007F1C12980197009150E00120C007039023
:104480000120019008A9009711A8FFF7D1FC139A09
:10449000149905920022119B009212981593059A87
:1044A0000192002901D0104602E0791C40180190C9
:1044B000381A01D5019804E04042401E0090781C53
:1044C0000190C01B029043E0012F00DA0127002178
:1044D000112F01DD112000E038460191009008A95C
:1044E00011A8FFF7A5FC13990591119A00211298C4
:1044F00015920091019721070CD40599B94201DB6F
:10450000019900E00191012904DD159A491E515CD1
:10451000302906D0B84201DA011D05DA01210291E5
:1045200015E00199491EEDE7002805DC00994118C6
:1045300000910199091A03E0019A411C914200DDA2
:1045400001910099401A401C02900120C00703907D
:10455000200706D402990198814202DB0020C04363
:10456000029000206946C87707AF012103980337FE
:10457000C907884224D0022011902B201290039862
:1045800000280CDA404203902D20129007E00A2107
:104590000398FBF7A9FD30317F1E03903970119904
:1045A000481E11900029F2DC03980028EFD1791EF3
:1045B000129808703078202108404530BF1E3870AE
:1045C00006A8C01BC01D039010980078002800D0DA
:1045D0000120019941180298C01709180398091879
:1045E0000498401A401E0490E00306D421461A9B0A
:1045F000199A049800F05EF8451910980078002880
:1046000003D01A9A199990476D1CE00324D52146CE
:104610001A9B199A049800F04DF845191CE000986F
:10462000002807DB00990598884203DD1598405C57
:10463000199901E0199930201A9A904700986D1C39
:10464000401C00900298401E0290002804D11A9A43
:104650002E20199990476D1C0199481E0190002940
:10466000DDDC05E038781A9A7F1C199990476D1C9B
:104670000399481E03900029F4DC21461A9B199ADD
:104680000498ACE62D0000002B0000002000000084
:1046900000000000F8B5044600251E4617468804B1
:1046A00004D405E039462020B0476D1C641EF9D5BE
:1046B0002846F8BDFFB50446002581B01E46C80354
:1046C00001D5302700E02027880404D505E03846CE
:1046D0000399B0476D1C641EF9D5284605B0F0BD9E
:1046E000F3B583B00F460024684601F04FF900256A
:1046F000AE000398B9598059401A00D54042FCF7E2
:104700007DF80F21C943FBF7C2FE694689594A006B
:10471000120E0BD0FBF77DFE7F21C905FBF734FE9F
:10472000400009494008884205DC07E00749401875
:104730000749884202D30120A84004436D1C032D81
:10474000D6DB204605B0F0BD295C0F3E666666C12B
:104750009A99D900F0B504464F008E488FB07F0873
:104760000D460D91874228DB4042381820430CD07B
:104770008948874203DC874218D1002C16D0204696
:104780002946FFF723FB0FB0F0BD844A844B204637
:104790002946FBF73DFF07460E46824A824B2046DC
:1047A0002946FBF735FF3A46334649E00120FFF73B
:1047B00039FBFFF714FB0FB0F0BD7C48874243DAAA
:1047C000F920800587420BDA20462946FFF770FA68
:1047D000042801D1FFF70CFB204629460FB0F0BD9D
:1047E00022462B4610462946FBF712FF0646024694
:1047F0006F480F460B4606217844FFF791FA324680
:104800003B46FBF705FF06906A48079132463B4658
:1048100004217844FFF784FA32463B46FBF7F8FE62
:1048200000225C4BFBF740FE02460B4607990698B8
:10483000FBF756FF22462B46FBF7EAFE22462B46A5
:10484000FBF732FE0FB0F0BD2046524C690049081C
:1048500000222346FBF7D3FE0022D243FBF7B8FF2A
:104860000546024654480E460B4606217844FFF79B
:1048700057FA2A463346FBF7CBFE06904F4807917E
:104880002A46334604217844FFF74AFA2A4633463B
:10489000FBF7BEFE00222346FBF706FE05910490BF
:1048A0002846314602F05CFC089045480C46874299
:1048B00019DB059B049A07990698FBF711FF02463E
:1048C0000B4621460898FBF7A3FE2346089AFBF700
:1048D000EBFD0122FBF77CFF304A314BFBF789FEF1
:1048E000304A314B4AE000273A460B460898FBF71E
:1048F000DBFD3A4623460A910E9010461946FBF717
:1049000087FE2A463346FBF77AFE0A9B0E9AFBF790
:10491000E7FE05460E46059B049A07990698FBF7A5
:10492000DFFE00910490012228463146FBF750FF3C
:104930001A4A1B4BFBF763FE0E4605460122214631
:104940000898FBF745FF009B049AFBF761FE2A4697
:104950003346FBF74EFE05460E46012238462146F9
:10496000FBF736FF0F4C174F22463B46FBF747FE3F
:104970002A463346FBF743FE22463B46FBF73FFE03
:104980000D9A002A00DD5DE70122D20751400FB0E9
:10499000F0BD00000000F03F0000F07F075C143322
:1049A00026A6913C182D4454FB21F93F0000E03F1E
:1049B0000C3600002236000098350000AE350000AD
:1049C0003333EF3FFB21E93FF0B589B004460D4694
:1049D0004800069172494008884215DB71498842B7
:1049E00003DC884207D1002C05D020462946FFF77A
:1049F000EDF909B0F0BD6C48002D02DD6B4909B03E
:104A0000F0BD6B4909B0F0BD6A49884211DA6A49C4
:104A100088420BDA20462946FFF74AF9042801D1DB
:104A2000FFF7E6F92046294609B0F0BD0026F64317
:104A30005DE06D0061496D08884232DA6049884264
:104A400019DA0026012332469B0720462946FBF748
:104A50002BFD07460191012220462946FBF7B8FEAF
:104A60000022584BFBF7C5FD3A46019BFBF738FE89
:104A700004460D463BE001260022524B20462946C3
:104A8000FBF712FD0746009100224E4B20462946B7
:104A9000FBF7AFFD3A46009BFBF722FE04460D46AE
:104AA00025E04949884219DA02260022474B204670
:104AB0002946FBF7ADFD0022424BFBF7F5FC07460C
:104AC00002910022414B20462946FBF792FD3A46CF
:104AD000029BFBF705FE04460D4608E0032622462E
:104AE0002B4600203A49FBF7FBFD04460D462246C3
:104AF0002B4610461946FBF78BFD07460B46024630
:104B00000191FBF785FD0246029032480B46039166
:104B100006217844FFF704F93A46019BFBF778FD3C
:104B200000902D48019105217844039B029AFFF7DC
:104B3000F7F8039B029AFBF76BFD02460B460199BF
:104B40000098002E0BDAFBF7AFFC22462B46FBF752
:104B50005FFD22462B46FBF752FD09B0F0BDFBF787
:104B6000A3FC22462B46FBF753FD1C4AF6007A4471
:104B700093191A685B68FBF73CFD22462B46FBF74E
:104B800038FD174A7A4493191A685B68FBF737FDBA
:104B9000069A002AE1DA0122D207514009B0F0BD9D
:104BA000000010440000F07F182D4454FB21F93F11
:104BB000FB21F9BF0000DC3F0000203E0000F33F76
:104BC0000000E63F0000F03F008003400000F83F97
:104BD0000000F0BFAA3300006C3300000633000071
:104BE000D0320000F0B51FB4039A029D53006E420C
:104BF0002E439446F40F5B084A00574E52081C435C
:104C00008E46B44205D847420743FC0F1443B442D2
:104C100005D92A466346FFF7DEF805B0F0BD4F4ED2
:104C200066442E430AD0CC0F6646B61702273E4094
:104C3000264304464A4F144304D00BE0FFF7C4FE5A
:104C400005B0F0BD002EFBD0012EF9D0022E32D0DF
:104C5000032E34D01C462C430BD03F4CA34216D11C
:104C6000A2420AD1012189078B438A43114603934B
:104C70000DE0704600280FDB25E03A4D7D44002E04
:104C80000ED0012E10D0022E15D0032E17D0A24226
:104C90001DD17046002816DA3148334905B0F0BD01
:104CA0006968286805B0F0BD01226968D2072868E4
:104CB000514005B0F0BD38462C4905B0F0BD38462E
:104CC0002B4905B0F0BD26482A4905B0F0BDD21ADF
:104CD00012153C2A02DD224D264C12E06346002BC1
:104CE00005DA3C23DA4202DA00252C4609E0039B70
:104CF000029AFBF7F5FC49004908FFF765FE0546F7
:104D00000C46002E12D0012E0DD01B4A1B4B022E3A
:104D10002846214618D0FBF76CFC3A46134BFBF7AC
:104D200068FC05B0F0BD0120C007444000221346D6
:104D300028462146FBF7EEFD02D10220FFF772F86C
:104D40002846214605B0F0BDFBF753FC3A46074B19
:104D5000FBF755FC05B0F0BD0000F07F000010C06F
:104D6000182D445470320000FB21F9BFFB2109408B
:104D7000FB2109C0FB21F93F075C143326A6A13CA7
:104D800038B504460020009002F008F9002827D129
:104D9000002C25D002226946F42000F027F80500F7
:104DA00020D16846007805224009207068460078C6
:104DB0002146C006400F6070684640784009A070E8
:104DC00068464078C006400FE07068464078C007EB
:104DD000C00F2071044800682C30FBF753FA01E043
:104DE0000025ED43284638BD34000020F8B51746AD
:104DF0000D46044602F0D2F8002813D1002D11D040
:104E00000A4801688878002801D180200443487846
:104E10004E683B462A462146B047002801D0032071
:104E2000C043F8BD0020C043F8BD0000340000209E
:104E300070B5052502F0B2F800282BD1174C861E5C
:104E40000122D0202168FFF7D1FF002807D1206878
:104E5000007856280CD057280AD0582808D0206847
:104E6000C1680A2088476D1E2D062D0EE8D112E07C
:104E700000F078F8002801D100F0DAFD002D0AD00A
:104E8000002807D1216800222031CA734A730A73AF
:104E90008A730A7470BD304670BD00003400002073
:104EA00010B50146002000F077F810BD10B504469B
:104EB00002F074F8002805D10348016820462C311F
:104EC00000F06AF810BD000034000020FEB5144662
:104ED0000E460546042A00D9042402F05FF8002893
:104EE0003BD1002D39D0002E37D0002C32D0307875
:104EF000694608701A4802689078002806D007E0D2
:104F0000295C4906490E2954401CC0B2A042F7D37F
:104F1000012C14D9694601200AE043009C465B1825
:104F20002F5C203BDF77375C6346401CCF54C0B218
:104F30002746A042F1D37800401E83B200E023460A
:104F40005078946829786A46A047002801D0032049
:104F5000C043FEBD0220C043FEBD0020C043FEBDD5
:104F6000340000201CB5E02168460170B6210171B3
:104F700002F014F804000AD1012201A96846FFF7E3
:104F8000A5FF044603480068C16802208847204600
:104F90001CBD0000340000207CB5064600200090B7
:104FA0002FA000680D46019001F0F8FF002853D1B2
:104FB000002D51D002226946F420FFF717FF0400AC
:104FC0004CD1FFF7CFFF040048D168460078E322B8
:104FD000C1062878C90E400101436846017068780F
:104FE00011404007C00E0143684601704078C10679
:104FF000A878C90E4001014368464170E878114025
:105000004007C00E01436846417028794908C0072F
:105010004900C00F0143684641700222694601A859
:10502000FFF754FF040019D10E48052200682946F5
:105030002C30FBF727F9002E10D069460878B1070D
:1050400080088000890F084369460870012201A882
:10505000FFF73CFF044601E00024E44320467CBD0A
:10506000F4F500003400002008B5002809D0202104
:105070006846017028214170302181703821C1704B
:1050800004E0A32204216846FBF70EF96A460421D6
:10509000024801F057FF01F0FBFB08BD9E0A00002B
:1050A000FEB50446022069460870CA204870E32015
:1050B00088700920C8706A460421682001F042FF08
:1050C000A32069460870610607D5C02269464A7068
:1050D000C8228A70C222CA7003E06946487088708C
:1050E000C870E605B10F07D0C42269460A71CC2208
:1050F0004A71C6228A7103E0694608714871887155
:10510000C871087248720A460A214D4801F01AFF18
:10511000A007D825002803D020206946087001E0A8
:105120006846057046486A4601210F3001F00AFFC3
:10513000A00601D5012000E0002000F08BF8B00FA0
:1051400019D0E00508D5B221684601708B21417065
:10515000B62181709B2107E0B02168460170802153
:105160004170B42181709021C170024634480421FD
:10517000401F01F0E7FE3348E10721D0F8216A46DD
:105180001170012101F0DEFEFA21072000F038FB4A
:10519000072000F007FB012000F01FFB642000F057
:1051A000C7FBFF20F53000F0D2FBC821264800F0F5
:1051B000C5FA282000F0D8FA0A2000F0E4FA05E049
:1051C00069460D706A46012101F0BCFEA00703D5B7
:1051D000D9206946087001E0684605706A460121D9
:1051E0001A4801F0AFFE600701D5012000E0002061
:1051F00000F050F8E00601D5012000E00020FFF7A4
:1052000033FF0820124D2043688101F041FB00204C
:10521000A873600601D50620A873B00F02D0A87B42
:10522000801DA8731420044202D0A87B1030A873FC
:10523000A00702D0A87B001DA8730020FEBD0000BF
:10524000A70A0000B008000009E3CA023D070000F9
:10525000880000200EB59723DB00002802D007A1AC
:1052600007C901E008A207CA0292019100906A46AC
:105270000921184601F066FE0EBD0000B8AAB38DE4
:10528000B4980D355D000000B8AAAAAAB088C3C5BD
:10529000C700000008B5002809D0C0216846017089
:1052A000C2214170C4218170C621C17004E08B22EB
:1052B00004216846FAF7F8FF6A460421024801F023
:1052C00041FE01F0E5FA08BD980A000010B5012280
:1052D000C82392020249034801F0BEF910BD000044
:1052E000A8710008F60B0000FFB589B01646129DA4
:1052F0000024139A57480F462C80807B694601F0A2
:105300004DFA002803D00020C0430DB0F0BD514835
:1053100014214089084243D06C462188A27849BABA
:10532000090412021143E27811438C463160A188CE
:1053300049BA0B04A17909020B43E1790B4373606D
:1053400021891B1449BA0A04A17A5B4309020A4362
:10535000E17A0A43B260A189A47B49BA0904240214
:1053600021436C46E47B12142143F1600914664624
:1053700052434943361451187643F318F122591811
:1053800012068918344A1024914204D301F080FA9D
:1053900000202880B7E72988FF22013211432980A5
:1053A0004206694617D50A19537816781B0233430B
:1053B0005BBA3B80D37896781B0233435BBA7B8021
:1053C000537916791A02324352BABA802A880823CE
:1053D0001A432A80A41D1F4EC205920F1AD00A1923
:1053E000537817781B023B43099F5BBA3B80D37805
:1053F00097781B023B43099F5BBA7B8053791779EF
:105400001A023A43099B52BA9A802A8870231A4397
:105410002A80A41D800718D00C19E0788509810620
:105420006078AD01890EC00707D0C8084907490F49
:105430003268491C002A00D090476078000704D5E4
:105440007168002901D0A80988470C9800F03CFE3B
:1054500000205AE78800002001000002F0B585B066
:10546000064604A800F0A0FF6846008A440CC50365
:10547000274801898807000F30584A0700D5404265
:10548000CA06920F9200B7588A0600D57F420A06D4
:10549000920F9200B2580392C90501D5514203916F
:1054A000C1172A462346FAF79FFE860F89000E434E
:1054B0003846F9172A462346FAF796FE870F8900E1
:1054C00003980F43C1172A462346FAF78DFE8A0038
:1054D000810F1143320E684602703214427032124C
:1054E0008270C6703A0E02713A1442713A12827199
:1054F000C7710A0E02720A1442720A128272C172D3
:105500000246A5200C21800001F01CFD05B0F0BD75
:105510008800002030B5044613A207CA85B06B4648
:10552000002507C3ED43C82C16D82146C820FAF73A
:10553000DBFD401E020A69460A73487303AA022172
:105540000C4801F0FFFC002806D16A460C210A48ED
:1055500001F0F8FC002802D0284605B030BD07480D
:1055600084810020F9E70000FEF2ABC4AAF1DFDF7E
:10557000BBAFDFDF16020000C10A00008800002078
:10558000F8B501462F4800898207120F8A58430751
:1055900000D55242C3069B0F9B00CD58830600D511
:1055A0006D4203069B0F9B00CE58C00500D5764286
:1055B000254F10463946FEF73EFB840F89000C4309
:1055C00028463946FEF737FB850F89000D433046E4
:1055D0003946FEF730FB860F89000E43210E6846E0
:1055E00001702114417021128170C4703D206A46FF
:1055F0000421000101F0A6FC0024E44300280FD19F
:10560000280E694608702814487028128870CD70DA
:10561000F5206A460421800001F094FC002801D0A6
:105620002046F8BD310E68460170311441703112C8
:105630008170C6707B206A460421C00001F082FCA4
:10564000F8BD00008800002009E3CA02F0B5044656
:1056500085B034A00068029033A00068039033A0A6
:10566000076833A0A607B60F02A905688A5D6846D9
:105670000270E006830FCA5C684642702006820F03
:10568000895C6846817003A98E5D0671CB5C4371AD
:10569000895C81716A460321264801F053FC00268B
:1056A000F643002836D1234801AA0321001D01F04A
:1056B00049FC00282ED160070121009701950028A0
:1056C00006DA684602780A43027002790A430271D8
:1056D000A00606D5684642780A43427042790A43DA
:1056E0004271E00506D5684682780A438270827965
:1056F0000A43827111206A460321800101F022FCD5
:10570000002807D10B4801AA03210B3001F01AFC35
:10571000002802D0304605B0F0BD074804810020C3
:10572000F9E700004CCD6C000CC92C003656760011
:1057300026466600260400008800002038B50C4686
:105740007D21C900FAF7E6FC6043020E69460A7043
:1057500002144A7002128A70C870FF206A4604213F
:105760005D3001F0EFFB38BD08B50521FAF7BCFC50
:10577000020A69460A704870FF206A4602215B30BF
:1057800001F0E0FB08BD08B50521FAF7ADFC020AFF
:1057900069460A704870FF206A460221593001F0BC
:1057A000D1FB08BD08B500216A461170C10701D0C0
:1057B00030211170810704D511780C2211436A46FB
:1057C0001170400703D51078032108431070FF20A3
:1057D0000121493001F0B6FB08BD08B500280CD006
:1057E000042800D904206946401E0870FF206A463C
:1057F0000121503001F0A6FB08BD0120F3E70000B5
:10580000FEB50546444E40077DD0192080018142F7
:105810007ED80846FAF7FDFF4049FAF7FAFD074639
:1058200001A800F0A1FD68460079022806D00428EE
:105830000DD008282CD010286AD132E00E2138462D
:10584000FAF725FEFBF719F884B2354907E00D2178
:105850003846FAF71CFEFBF710F8324984B2384696
:10586000FAF79AFDFBF709F8220A69460A7080B236
:105870004C70020A8A70C870E8070C4622D00A46AB
:10588000FF200221D53001F05DFB002840D111E05E
:105890000C213846FAF7FBFDFAF7EFFF84B22249F4
:1058A000DDE70B213846FAF7F2FDFAF7E6FF84B29E
:1058B0001E49D4E7FF20A21C0221253001F042FB43
:1058C000002825D1A8070FD5FF206A460221D9302C
:1058D00001F038FB00281BD1FF20A21C0221293037
:1058E00001F030FB002813D1680713D5FF206A466A
:1058F0000221DD3001F026FB002809D1A21C022183
:10590000FF202D3000E003E001F01CFB002801D057
:105910003046FEBD0020FEBDFFFFFFFF00004843F4
:10592000000040460000C045000040450000C04463
:1059300008B50521FAF7D8FB020A69460A704870D3
:10594000FF206A460221DF3001F0FCFA08BD08B5ED
:105950000521FAF7C9FB020A69460A704870FF2060
:105960006A460221DB3001F0EDFA08BD13B50023D1
:10597000DB43012269460248FCF70EFD00981CBD7E
:10598000DC01002010B5FBF779F910BDF0B5064633
:10599000244885B0406802AB007804220D21FDF751
:1059A000F9F9002802D0072005B0F0BD6846007A5A
:1059B0006D46C00882086846C17A92008806800F4A
:1059C000024368460270407AC008820808079200C5
:1059D000800F024368464270807AC00882089200B5
:1059E0008807800F0243684682700024285D0028E3
:1059F00002D00D48A70007E00020A10070500AE087
:105A0000F0590A49FAF7C8FCF051285D401E00061B
:105A1000000E2855F4D1641CE4B2032CE6D3002018
:105A2000C2E70000380000207B14AE3E1D5A843FC0
:105A300000B587B018216846FAF73DFC01F0AEFAD0
:105A400000282CD1182269468820FFF7CFF90028BA
:105A500025D114496A46096812880A826A46528822
:105A60004A826A4692888A826A46D288CA826A468E
:105A700012890A836A4652894A836A4692898A83CE
:105A80006A46D289CA836A46128A0A846A46528A58
:105A90004A846A46928A8A846A46D28ACA8407B04D
:105AA00000BD000034000020F0B585B00C4605466E
:105AB0000120694608700020C44E487030681746BF
:105AC000817C70686B4600780222FDF7CBF90028D4
:105AD0007CD1C820FBF7D2F80020694608703068F6
